:020000040000FA
:0400000081EF00F09C
:100008000B01F300F300F3004000F3004000F3009D
:10001800F300F300F300F300F300F300F300F30040
:10002800F300400040004000F300F300F300F30049
:10003800F300F300F3000401B700F300F300F3004A
:10004800F300F300F300F30040004000F300F30076
:10005800F300F300F3004000F300F300F300F300B3
:10006800F300F300F300F300F300F300F300F300F0
:10007800F300F300F300F3004000F300F300F30093
:10008800F300F300F300F300F300F300F300F300D0
:10009800F300F300F300F3004000F30040004000D9
:1000A800F300F300F300F300F300F300F300F300B0
:1000B800F300F300F300F300F300F300F300F300A0
:1000C800F300F300F300F300F300F300F300F30090
:1000D800F300F300F300F300F300F300F300F30080
:1000E8004000F300F300F3004000400040004000EF
:1000F800F300F300F300F300FF003BEF01F080830F
:1001080086898C8F9295989B9EA2A5A7AAADB0B31D
:10011800B6B9BCBEC1C4C6C9CBCED0D3D5D7DADC3C
:10012800DEE0E2E4E6E8EAEBEDEEF0F1F3F4F5F612
:10013800F8F9FAFAFBFCFDFDFEFEFEFFFFFFFFFFEC
:10014800FFFFFEFEFEFDFDFCFBFAFAF9F8F6F5F4FA
:10015800F3F1F0EEEDEBEAE8E6E4E2E0DEDCDAD734
:10016800D5D3D0CECBC9C6C4C1BEBCB9B6B3B0AD69
:10017800AAA7A5A29E9B9895928F8C898683807C3E
:10018800797673706D6A6764615D5A5855524F4C41
:10019800494643413E3B393634312F2C2A28252302
:1001A800211F1D1B1917151412110F0E0C0B0A090C
:1001B8000706050504030202010101000000000012
:1001C80000000101010202030405050607090A0BE4
:1001D8000C0E0F1112141517191B1D1F212325288A
:1001E8002A2C2F313436393B3E414346494C4F5235
:1001F80055585A5D6164676A6D707376797C21EE33
:100208007CF111EE04F11B0EDBC4E3F4E806FCE21A
:1002180021EE60F111EE20F11B0EDBC4E3F4E806D9
:10022800FCE24B50020D200EF324D96E050EF4208B
:10023800DA6E4850DE1807E14950DE18D8A427EFD7
:1002480001F029EF01F038EF01F0000E496E000EC1
:10025800486E1C0E4B6433EF01F035EF01F037EFB9
:1002680001F0000E4B6E4B2A484A492A1200060E2E
:10027800F66E010EF76E000EF86E01EE00F210EE4B
:1002880000F10900F5C4EEF4E550E150FAE1E2505E
:10029800F8E1160EF66E030EF76E000EF86E01EE1C
:1002A80060F110EE38F00900F5C4EEF4E550E150C5
:1002B800FAE101EE3CF1140EEE6AE806FDE10401F4
:1002C800080E5D6F000E5E6F000E5F6F0001C1EFDC
:0202D80001F033
:1002DC00610034F51DF3610030F51CF3040E4A2661
:1002EC00000E4A24D96EDA6A060EDA22DF500001BB
:1002FC007D6FB1984EB085EF01F087EF01F08AEF7A
:10030C0001F0A19803011E911100000200020002ED
:10031C0000020002000200040002000200020002BF
:10032C000002000200043C003C00280028002400CD
:10033C00240028002D002D002F002F003500350043
:10034C003C00000E446E000E456E000E466E000E14
:10035C00476E000E406E000E416E000E426E000E97
:10036C00436E7D0E0301236F010E266FB196F00EC6
:10037C00246FA18612004F8E18EC02F0F3EC01F002
:10038C0011EC02F0A7EC01F0D7EC01F04F9E03EC5E
:10039C0001F0BE9EFEEC01F0BE8ECDEF01F081EFC0
:1003AC0000F0C00EBE16900E03011A6F540E1B6F98
:0E03BC00000E1F6F010E216F310E1E6F12001A
:1003CC00610060F301F5010E3C26000E3D223E2239
:1003DC003F22610004F4D8F41100000E0401006FF8
:1003EC00000EC66EA00E00017F6F000E7D6F120016
:1003FC004F8C4FBC04EF02F006EF02F0FFEF01F060
:02040C001200DC
:10041000B1964F9C010E4426000E452246224722EB
:0A0420001100D68AD68ED68C120089
:06042C00AE901100120069
:020000040020DA
:10000000FF0FFF0FFF0FFF0FFF0FFF0FFF0FFF0F80
:10001000FF0FFF0FFF0FFF0FFF0FFF0FFF0FFF0F70
:020000040030CA
:0A0000008CFEFFFC9FFFFFFFFFFFD7
:00000001FF
