:020000040000FA
:0400000081EF00F09C
:100008001E01060106010601400006014000060126
:1000180006010601060106010601060106010601A0
:1000280006014000400040000601060106010601E5
:100038000601060106011701F60006010601060180
:1000480006010601060106014000400006010601FE
:100058000601060106014000060106010601060127
:100068000601060106010601060106010601060150
:100078000601060106010601400006010601060107
:100088000601060106010601060106010601060130
:100098000601060106010601400006014000400075
:1000A8000601060106010601060106010601060110
:1000B8000601060106010601060106010601060100
:1000C80006010601060106010601060106010601F0
:1000D80006010601060106010601060106010601E0
:1000E80040000601060106014000400040004000B3
:1000F8000601060106010601FF0003EF01F08083F7
:1001080086898C8F9295989B9EA2A5A7AAADB0B31D
:10011800B6B9BCBEC1C4C6C9CBCED0D3D5D7DADC3C
:10012800DEE0E2E4E6E8EAEBEDEEF0F1F3F4F5F612
:10013800F8F9FAFAFBFCFDFDFEFEFEFFFFFFFFFFEC
:10014800FFFFFEFEFEFDFDFCFBFAFAF9F8F6F5F4FA
:10015800F3F1F0EEEDEBEAE8E6E4E2E0DEDCDAD734
:10016800D5D3D0CECBC9C6C4C1BEBCB9B6B3B0AD69
:10017800AAA7A5A29E9B9895928F8C898683807C3E
:10018800797673706D6A6764615D5A5855524F4C41
:10019800494643413E3B393634312F2C2A28252302
:1001A800211F1D1B1917151412110F0E0C0B0A090C
:1001B8000706050504030202010101000000000012
:1001C80000000101010202030405050607090A0BE4
:1001D8000C0E0F1112141517191B1D1F212325288A
:1001E8002A2C2F313436393B3E414346494C4F5235
:1001F80055585A5D6164676A6D707376797C060E2E
:10020800F66E010EF76E000EF86E01EE00F310EEBA
:1002180000F10900F5C4EEF4E550E150FAE1E250CE
:10022800F8E1060EF66E030EF76E000EF86E01EE9C
:1002380000F210EE3CF00900F5C4EEF4E550E15090
:10024800FAE1760EF66E030EF76E000EF86E01EE0A
:1002580001F110EE32F00900F5C4EEF4E550E1507A
:10026800FAE10501D16BD06BCF6BCE6B01EE33F1A8
:10027800100EEE6AE806FDE10401080E5D6F000E3F
:100288005E6F000E5F6F0001D4EF01F021EE01F107
:1002980011EE60F1310EDBC4E3F4E806FCE221EE76
:1002A80000F211EE92F13B0EDBC4E3F4E806FCE247
:1002B8000501D051020D920EF324D96E050EF420DB
:1002C800DA6ECE51DE1807E1CF51DE18D8A46FEFF1
:1002D80001F071EF01F080EF01F0000ECF6F000E1A
:1002E800CE6F1C0ED0657BEF01F07DEF01F07FEF44
:1002F80001F0000ED06FD02BCE4BCF2B1200320066
:100308000002320000023200000232000002320015
:100318000002320000023200000432000002320003
:1003280000023200000232000002320000043200F3
:1003380000023200000232000002000E3B6E000E86
:100348003C6E000E3D6E000E3E6E000E376E000EC7
:10035800386E000E396E000E3A6E7D0E0301236F63
:10036800010E266FB196F00E246FA18612000000D0
:100378003C0000003C0000002800000028000000AD
:100388002400000024000000280000002D000000C8
:100398002D0000002F000000350000003C00000088
:1003A8000501D18F3EEC02F019EC02F038EC02F0B6
:1003B800A1EC01F0FEEC01F00501D19F4AEC01F03F
:1003C800BE9E24EC02F0BE8EE2EF01F081EF00F059
:1003D800610004F51DF3610000F51CF3B19842B00B
:1003E800F8EF01F0FAEF01F0FDEF01F0A198030139
:1003F8001E911100C00EBE16900E03011A6F540E06
:100408001B6F000E1F6F010E216F310E1E6F120041
:10041800610060F343F5010E3326000E34223522C5
:10042800362261000CF5D8F41100000E0401006FAB
:10043800000EC66EA00E00017F6F000E7D6F1200C9
:100448000501D18DD1BD2BEF02F02DEF02F026EF83
:1004580002F01200B1960501D19D010E3B26000E57
:100468003C223D223E221100D68AD68ED68C12001E
:06047800AE90110012001D
:020000040020DA
:10000000FF0FFF0FFF0FFF0FFF0FFF0FFF0FFF0F80
:10001000FF0FFF0FFF0FFF0FFF0FFF0FFF0FFF0F70
:020000040030CA
:0A0000008CFEFFFC9FFFFFFFFFFFD7
:00000001FF
